{
  "contractName": "ENSRegistry",
  "abi": [
    {
      "anonymous": false,
      "inputs": [
        {
          "indexed": true,
          "internalType": "string",
          "name": "name",
          "type": "string"
        },
        {
          "indexed": true,
          "internalType": "address",
          "name": "owner",
          "type": "address"
        },
        {
          "indexed": true,
          "internalType": "address",
          "name": "addr",
          "type": "address"
        }
      ],
      "name": "NewName",
      "type": "event"
    },
    {
      "inputs": [
        {
          "internalType": "string",
          "name": "name",
          "type": "string"
        }
      ],
      "name": "owner",
      "outputs": [
        {
          "internalType": "address",
          "name": "",
          "type": "address"
        }
      ],
      "stateMutability": "view",
      "type": "function",
      "constant": true
    },
    {
      "inputs": [
        {
          "internalType": "string",
          "name": "name",
          "type": "string"
        }
      ],
      "name": "resolve",
      "outputs": [
        {
          "internalType": "address",
          "name": "",
          "type": "address"
        }
      ],
      "stateMutability": "view",
      "type": "function",
      "constant": true
    },
    {
      "inputs": [
        {
          "internalType": "string",
          "name": "name",
          "type": "string"
        },
        {
          "internalType": "address",
          "name": "addr",
          "type": "address"
        }
      ],
      "name": "registerName",
      "outputs": [],
      "stateMutability": "nonpayable",
      "type": "function"
    },
    {
      "inputs": [
        {
          "internalType": "string",
          "name": "name",
          "type": "string"
        },
        {
          "internalType": "address",
          "name": "newAddr",
          "type": "address"
        }
      ],
      "name": "updateAddress",
      "outputs": [],
      "stateMutability": "nonpayable",
      "type": "function"
    },
    {
      "inputs": [
        {
          "internalType": "address",
          "name": "addr",
          "type": "address"
        }
      ],
      "name": "getNameByAddress",
      "outputs": [
        {
          "internalType": "string",
          "name": "",
          "type": "string"
        }
      ],
      "stateMutability": "view",
      "type": "function",
      "constant": true
    }
  ],
  "bytecode": "0x608060405234801561001057600080fd5b50611170806100206000396000f3fe608060405234801561001057600080fd5b50600436106100575760003560e01c80633e21750a1461005c578063461a4478146100785780637b59af16146100a85780637c80bb4f146100c4578063df55b41a146100f4575b600080fd5b61007660048036038101906100719190610afe565b610124565b005b610092600480360381019061008d9190610abd565b6102a3565b60405161009f9190610dde565b60405180910390f35b6100c260048036038101906100bd9190610afe565b6102eb565b005b6100de60048036038101906100d99190610a94565b61060c565b6040516100eb9190610df9565b60405180910390f35b61010e60048036038101906101099190610abd565b6107d4565b60405161011b9190610dde565b60405180910390f35b813373ffffffffffffffffffffffffffffffffffffffff1660008260405161014c9190610db0565b908152602001604051809103902060009054906101000a900473ffffffffffffffffffffffffffffffffffffffff1673ffffffffffffffffffffffffffffffffffffffff16146101d1576040517f08c379a00000000000000000000000000000000000000000000000000000000081526004016101c890610e1b565b60405180910390fd5b816001846040516101e29190610db0565b908152602001604051809103902060006101000a81548173ffffffffffffffffffffffffffffffffffffffff021916908373ffffffffffffffffffffffffffffffffffffffff1602179055508173ffffffffffffffffffffffffffffffffffffffff163373ffffffffffffffffffffffffffffffffffffffff168460405161026a9190610db0565b60405180910390207fdc278b64b85591d874b05efe885fafddc3502bec56689c45e6beb5fa8860107f60405160405180910390a4505050565b60006001826040516102b59190610db0565b908152602001604051809103902060009054906101000a900473ffffffffffffffffffffffffffffffffffffffff169050919050565b81600681511015610331576040517f08c379a000000000000000000000000000000000000000000000000000000000815260040161032890610e7b565b60405180910390fd5b600e81511115610376576040517f08c379a000000000000000000000000000000000000000000000000000000000815260040161036d90610e5b565b60405180910390fd5b6103b5816040518060400160405280600481526020017f2e6574680000000000000000000000000000000000000000000000000000000081525061081b565b6103f4576040517f08c379a00000000000000000000000000000000000000000000000000000000081526004016103eb90610e3b565b60405180910390fd5b600073ffffffffffffffffffffffffffffffffffffffff1660008460405161041c9190610db0565b908152602001604051809103902060009054906101000a900473ffffffffffffffffffffffffffffffffffffffff1673ffffffffffffffffffffffffffffffffffffffff16146104a1576040517f08c379a000000000000000000000000000000000000000000000000000000000815260040161049890610e9b565b60405180910390fd5b336000846040516104b29190610db0565b908152602001604051809103902060006101000a81548173ffffffffffffffffffffffffffffffffffffffff021916908373ffffffffffffffffffffffffffffffffffffffff1602179055508160018460405161050f9190610db0565b908152602001604051809103902060006101000a81548173ffffffffffffffffffffffffffffffffffffffff021916908373ffffffffffffffffffffffffffffffffffffffff160217905550600283908060018154018082558091505060019003906000526020600020016000909190919091509080519060200190610596929190610974565b508173ffffffffffffffffffffffffffffffffffffffff163373ffffffffffffffffffffffffffffffffffffffff16846040516105d39190610db0565b60405180910390207fdc278b64b85591d874b05efe885fafddc3502bec56689c45e6beb5fa8860107f60405160405180910390a4505050565b606060005b6002805490508110156107bb578273ffffffffffffffffffffffffffffffffffffffff16600160028381548110610671577f4e487b7100000000000000000000000000000000000000000000000000000000600052603260045260246000fd5b906000526020600020016040516106889190610dc7565b908152602001604051809103902060009054906101000a900473ffffffffffffffffffffffffffffffffffffffff1673ffffffffffffffffffffffffffffffffffffffff1614156107a8576002818154811061070d577f4e487b7100000000000000000000000000000000000000000000000000000000600052603260045260246000fd5b9060005260206000200180546107229061100a565b80601f016020809104026020016040519081016040528092919081815260200182805461074e9061100a565b801561079b5780601f106107705761010080835404028352916020019161079b565b820191906000526020600020905b81548152906001019060200180831161077e57829003601f168201915b50505050509150506107cf565b80806107b39061103c565b915050610611565b506040518060200160405280600081525090505b919050565b600080826040516107e59190610db0565b908152602001604051809103902060009054906101000a900473ffffffffffffffffffffffffffffffffffffffff169050919050565b600080839050600083905080518251106109675760005b815181101561095b5781600182845161084b9190610f58565b6108559190610f58565b8151811061088c577f4e487b7100000000000000000000000000000000000000000000000000000000600052603260045260246000fd5b602001015160f81c60f81b7effffffffffffffffffffffffffffffffffffffffffffffffffffffffffffff19168360018386516108c99190610f58565b6108d39190610f58565b8151811061090a577f4e487b7100000000000000000000000000000000000000000000000000000000600052603260045260246000fd5b602001015160f81c60f81b7effffffffffffffffffffffffffffffffffffffffffffffffffffffffffffff191614610948576000935050505061096e565b80806109539061103c565b915050610832565b5060019250505061096e565b6000925050505b92915050565b8280546109809061100a565b90600052602060002090601f0160209004810192826109a257600085556109e9565b82601f106109bb57805160ff19168380011785556109e9565b828001600101855582156109e9579182015b828111156109e85782518255916020019190600101906109cd565b5b5090506109f691906109fa565b5090565b5b80821115610a135760008160009055506001016109fb565b5090565b6000610a2a610a2584610eec565b610ebb565b905082815260208101848484011115610a4257600080fd5b610a4d848285610fc8565b509392505050565b600081359050610a6481611123565b92915050565b600082601f830112610a7b57600080fd5b8135610a8b848260208601610a17565b91505092915050565b600060208284031215610aa657600080fd5b6000610ab484828501610a55565b91505092915050565b600060208284031215610acf57600080fd5b600082013567ffffffffffffffff811115610ae957600080fd5b610af584828501610a6a565b91505092915050565b60008060408385031215610b1157600080fd5b600083013567ffffffffffffffff811115610b2b57600080fd5b610b3785828601610a6a565b9250506020610b4885828601610a55565b9150509250929050565b610b5b81610f8c565b82525050565b6000610b6c82610f31565b610b768185610f3c565b9350610b86818560208601610fd7565b610b8f81611112565b840191505092915050565b6000610ba582610f31565b610baf8185610f4d565b9350610bbf818560208601610fd7565b80840191505092915050565b60008154610bd88161100a565b610be28186610f4d565b94506001821660008114610bfd5760018114610c0e57610c41565b60ff19831686528186019350610c41565b610c1785610f1c565b60005b83811015610c3957815481890152600182019150602081019050610c1a565b838801955050505b50505092915050565b6000610c57602683610f3c565b91507f4f6e6c7920746865206f776e65722063616e2063616c6c20746869732066756e60008301527f6374696f6e2e00000000000000000000000000000000000000000000000000006020830152604082019050919050565b6000610cbd601983610f3c565b91507f4e616d652073686f756c6420656e642077697468202e657468000000000000006000830152602082019050919050565b6000610cfd600d83610f3c565b91507f4e616d6520746f6f206c6f6e67000000000000000000000000000000000000006000830152602082019050919050565b6000610d3d600e83610f3c565b91507f4e616d6520746f6f2073686f72740000000000000000000000000000000000006000830152602082019050919050565b6000610d7d601a83610f3c565b91507f54686973206e616d6520697320616c7265616479206e616d652e0000000000006000830152602082019050919050565b6000610dbc8284610b9a565b915081905092915050565b6000610dd38284610bcb565b915081905092915050565b6000602082019050610df36000830184610b52565b92915050565b60006020820190508181036000830152610e138184610b61565b905092915050565b60006020820190508181036000830152610e3481610c4a565b9050919050565b60006020820190508181036000830152610e5481610cb0565b9050919050565b60006020820190508181036000830152610e7481610cf0565b9050919050565b60006020820190508181036000830152610e9481610d30565b9050919050565b60006020820190508181036000830152610eb481610d70565b9050919050565b6000604051905081810181811067ffffffffffffffff82111715610ee257610ee16110e3565b5b8060405250919050565b600067ffffffffffffffff821115610f0757610f066110e3565b5b601f19601f8301169050602081019050919050565b60008190508160005260206000209050919050565b600081519050919050565b600082825260208201905092915050565b600081905092915050565b6000610f6382610fbe565b9150610f6e83610fbe565b925082821015610f8157610f80611085565b5b828203905092915050565b6000610f9782610f9e565b9050919050565b600073ffffffffffffffffffffffffffffffffffffffff82169050919050565b6000819050919050565b82818337600083830152505050565b60005b83811015610ff5578082015181840152602081019050610fda565b83811115611004576000848401525b50505050565b6000600282049050600182168061102257607f821691505b60208210811415611036576110356110b4565b5b50919050565b600061104782610fbe565b91507fffffffffffffffffffffffffffffffffffffffffffffffffffffffffffffffff82141561107a57611079611085565b5b600182019050919050565b7f4e487b7100000000000000000000000000000000000000000000000000000000600052601160045260246000fd5b7f4e487b7100000000000000000000000000000000000000000000000000000000600052602260045260246000fd5b7f4e487b7100000000000000000000000000000000000000000000000000000000600052604160045260246000fd5b6000601f19601f8301169050919050565b61112c81610f8c565b811461113757600080fd5b5056fea2646970667358221220ff9f16caa052f23cb17f6bdfa1728b698c0376c3905d44b4d65b2cba7d0b664364736f6c63430008000033",
  "immutableReferences": {},
  "source": "// SPDX-License-Identifier: MIT\npragma solidity ^0.8.0;\n\ncontract ENSRegistry {\n    mapping(string => address) private nameToOwner;\n    mapping(string => address) private nameToAddress;\n    string[] private nameList;\n\n    event NewName(string indexed name, address indexed owner, address indexed addr);\n\n    modifier onlyOwner(string memory name) {\n        require(nameToOwner[name] == msg.sender, \"Only the owner can call this function.\");\n        _;\n    }\n\n    modifier validName(string memory name) {\n        require(bytes(name).length >= 6, \"Name too short\");\n        require(bytes(name).length <= 14, \"Name too long\");\n        require(endsWith(name, \".eth\"), \"Name should end with .eth\");\n\n        _;\n    }\n\n    function owner(string memory name) public view returns (address) {\n        return nameToOwner[name];\n    }\n\n    function resolve(string memory name) public view returns (address) {\n        return nameToAddress[name];\n    }\n\n    function registerName(string memory name, address addr) public validName(name) {\n        require(nameToOwner[name] == address(0x0), \"This name is already name.\");\n\n        nameToOwner[name] = msg.sender;\n        nameToAddress[name] = addr;\n        nameList.push(name);\n\n        emit NewName(name, msg.sender, addr);\n    }\n\n    function updateAddress(string memory name, address newAddr) public onlyOwner(name) {\n        nameToAddress[name] = newAddr;\n\n        emit NewName(name, msg.sender, newAddr);\n    }\n\n    function getNameByAddress(address addr) public view returns (string memory) {\n        for (uint i = 0; i < nameList.length; i++) {\n            if (nameToAddress[nameList[i]] == addr) {\n                return nameList[i];\n            }\n        }\n        return \"\"; //         \n    }\n    function endsWith(string memory name, string memory suffix) private pure returns (bool) {\n    bytes memory _name = bytes(name);\n    bytes memory _suffix = bytes(suffix);\n        if(_name.length >= _suffix.length) {\n            for(uint i = 0; i < _suffix.length; i++) {\n                if(_name[_name.length - i - 1] != _suffix[_suffix.length - i - 1]) {\n                    return false;\n                }\n            }\n            return true;\n        }\n        return false;\n    }\n\n}\n",
  "sourcePath": "/Users/parkgeonwoo/ens/contracts/ENSRegistry.sol",
  "compiler": {
    "name": "solc",
    "version": "0.8.0+commit.c7dfd78e.Emscripten.clang"
  },
  "schemaVersion": "3.4.14",
  "updatedAt": "2023-07-12T09:48:20.486Z",
  "networkType": "ethereum",
  "devdoc": {
    "kind": "dev",
    "methods": {},
    "version": 1
  },
  "userdoc": {
    "kind": "user",
    "methods": {},
    "version": 1
  }
}